:020000040800F2
:10000000880B0020690700086D0500086F050008CF
:1000100073050008770500087B0500080000000054
:100020000000000000000000000000007F05000844
:100030008105000800000000830500088505000810
:100040008307000883070008830700088307000868
:100050008307000883070008712D00089B2D000806
:100060008307000883070008830700088307000848
:100070008307000883070008830700088307000838
:100080008307000883070008830700088307000828
:100090008307000883070008830700088307000818
:1000A0008307000883070008830700088307000808
:1000B00083070008830700081D390008830700082C
:1000C00083070008830700088307000883070008E8
:1000D00083070008A1260008E1350008830700080F
:1000E000B12C000883070008830700088307000875
:1000F00083070008830700088307000883070008B8
:10010000830700088307000895320008830700086A
:100110008307000883070008830700088307000897
:100120008307000883070008830700088307000887
:1001300000F002F800F090F80AA090E8000C824469
:100140008344AAF10107DA4501D100F085F8AFF246
:10015000090EBAE80F0013F0010F18BFFB1A43F0A5
:1001600001031847BC5A0000DC5A0000103A24BFB3
:1001700078C878C1FAD8520724BF30C830C144BF0C
:1001800004680C607047000000230024002500264E
:10019000103A28BF78C1FBD8520728BF30C148BFEA
:1001A0000B6070476E2903F02986702903F03D84A7
:1001B000662905F0B981652905F0B681672905F042
:1001C000B381612905F0B28103681B0A28BF41F0A1
:1001D0008001692903F0D685642903F0D385752948
:1001E00003F0D0856F2903F0F986782903F009849C
:1001F000E92903F09386E42903F09086F52903F0BA
:100200008D86EF2903F0F686F82903F00884036849
:10021000DB0928BF41F08001632904F0CF827329F4
:1002200004F0D482E32904F0DF82F32904F0E482AD
:10023000002070471FB504F031FB040000200021AE
:1002400005F018F8401C60600020002104F0FCFF5D
:10025000E0601FBD10B510BD04F0F2FA1146FFF7C3
:10026000E9FF00F009F804F0CBFB03B4FFF7F2FF5D
:1002700003BC02F0BBF9000002F058FA02F04CF99E
:100280004FF4165003F0B7FA02F076FA02F0D4FCFD
:1002900002F077FC4FF4165002F0B6F9A5A2012146
:1002A000084602F0B2FBA5A20121022002F0ADFB3C
:1002B000A4A20121032002F0A8FBA4A20121042092
:1002C00002F0A3FB02F08EFF02F00EFE31E103F01C
:1002D000A1F8A04908700846007800287DD008469B
:1002E0000078622845D013DC222877D007DC20B3C1
:1002F000022861D0102872D018282BD1D0E03028E5
:100300006ED038286DD042286CD05A28F5D1F6E04E
:10031000A22820D008DC682865D07A287ED09028D2
:100320007DD09828E9D1A6E0A82833D0B02877D08E
:10033000C22863D0E028E0D188E0322086490870E6
:1003400086490870864908708649087003F016F9D6
:1003500003F0F2F8E9E01E207F4908707F49087039
:100360007F4908707F49087003F008F903F0E4F84A
:10037000DBE0142002F00DF903F088F8764890F9DC
:1003800000005A2801DB03F0C3F803F0F7F803F08C
:10039000D3F8CAE0142002F0FCF803F098F86E4895
:1003A00090F9000010F15A0F01DC03F0BBF803F0E4
:1003B000E5F803F0C1F8B8E0002067490870674924
:1003C00008706749087067490870084690F900305E
:1003D000634890F90020614806E0A7E024E080E04F
:1003E00057E085E092E03FE090F900105A4890F91C
:1003F000000002F09DFE03F09FF896E05A48007856
:10040000401C40B258490870322002F0C2F85648E9
:1004100090F90000052806DB052002E05AE01CE008
:1004200030E05149087080E04F480078401E40B2EB
:100430004D490870322002F0ACF84B4890F90000AA
:10044000012802DC0120484908706EE002F05CFEE1
:1004500003F094F803F070F867E002F05FFE03F039
:100460008DF803F069F860E002F03AFE03F086F8D8
:1004700003F062F859E002F0F7FD03F07FF803F0B3
:100480005BF852E002F018FE03F078F803F054F83D
:100490004BE002F007FE03F071F803F04DF844E082
:1004A00000202D4908702D4908702D4908702D49EC
:1004B0000870084690F90030294890F90020274834
:1004C00090F90010244890F9000002F031FE03F08A
:1004D00033F82AE002F0DCFD03F050F803F02CF8CA
:1004E00023E002F0F3FD03F049F803F025F81CE0E7
:1004F00002F0C4FD03F042F803F01EF815E002F02C
:10050000F9FD03F03BF803F017F80EE0142002F0B9
:1005100040F802F0BBFF104890F900005A2801DBB8
:1005200002F0F6FF03F008F800BF02E00A2002F034
:1005300030F8CCE65370656564313A0053706565F8
:1005400064323A005370656564333A0053706565F0
:1005500064343A0005000020010000200200002061
:10056000030000200400002006000020704700BFA8
:10057000FEE700BFFEE700BFFEE700BFFEE77047F3
:1005800070477047704700000CB500200190009044
:100590006C48006840F480306A49086000BF6948D0
:1005A000006800F4003000900198401C0190009811
:1005B00018B90198B0F5A06FF1D16248006800F455
:1005C000003010B10120009001E000200090009860
:1005D000012843D15C48006840F010005A49086087
:1005E0000846006820F0030008600846006840F0F4
:1005F0000200086053484068524948600846406815
:1006000048600846406840F480604860084640689A
:1006100020F47C1048600846406840F4E8104860C8
:100620000846006840F08070086000BF45480068D8
:1006300000F000700028F9D04248406820F0030024
:10064000404948600846406840F00200486000BFEA
:100650003C48406800F00C000828F9D10CBD10B5EA
:10066000FFF792FF10BD10B53648006840F001005A
:1006700034490860084640683449084031494860B8
:1006800008460068324908402E490860084600685C
:1006900020F4802008600846406820F4FE0048608E
:1006A0004FF41F008860FFF7DAFF4FF00060294920
:1006B000086010BD10B5002100200022214B5B68AE
:1006C00003F00C0121B1042906D0082928D107E044
:1006D000214B224C236027E01F4B204C236023E05A
:1006E000184B5B6803F47010164B5B6803F48032A0
:1006F000022303EB904022B9194B4343174C23606C
:100700000DE0104B5B6803F4003323B1144B4343FB
:10071000124C236003E0104B4343104C236003E072
:100720000D4B0E4C236000BF00BF064B5B68C3F34C
:1007300003130C4CE15C094B1B68CB40074C236056
:1007400010BD000000100240002002400000FFF831
:10075000FFFFF6FE08ED00E000127A001000002016
:1007600000093D001400002009488047094800475F
:10077000FEE7FEE7FEE7FEE7FEE7FEE7FEE7FEE751
:10078000FEE7FEE704480549054A064B70470000AE
:10079000670600083101000888050020880B00204A
:1007A000880700208807002031490143314A116041
:1007B000704770B5002100230F22C47804B32D4C7C
:1007C000246804F4E064C4F5E064210AC1F1040380
:1007D000CA40447804FA03F18478144021430901A3
:1007E000254C0678A155047804F01F050124AC407F
:1007F00005786D11AD0005F1E025C5F8004109E06F
:10080000047804F01F050124AC401C4D06787611D5
:1008100045F8264070BD1A4A0A400243154B1B1F7B
:100820001A60704739B1134A121D12680243114B06
:100830001B1D1A6006E00F4A121D126882430D4B01
:100840001B1D1A607047042808D14FF0E021096988
:1008500041F004014FF0E022116107E04FF0E02188
:10086000096921F004014FF0E02211617047000096
:100870000000FA050CED00E000E400E080E100E09B
:1008800080FFFF1F01684FF6FE72114001600021DA
:10089000016041608160C1608D49884208D18C4906
:1008A0000839496841F00F01894A083A51608AE0E5
:1008B00087491431884208D185490839496841F08F
:1008C000F001834A083A51607DE08149283188422D
:1008D00008D17F490839496841F470617C4A083A77
:1008E000516070E07A493C31884208D17849083932
:1008F000496841F47041764A083A516063E07449AE
:100900005031884208D172490839496841F4702150
:100910006F4A083A516056E06D496431884208D107
:100920006B490839496841F47001694A083A5160D5
:1009300049E067497831884208D1654908394968F2
:1009400041F07061624A083A51603CE06149884276
:1009500006D1011F096841F00F01021F116032E04A
:100960005C491431884208D15A49091F096841F08D
:10097000F001584A121F116025E05649283188427B
:1009800008D15449091F096841F47061514A121F86
:10099000116018E04F493C31884208D14D49091F88
:1009A000096841F470414B4A121F11600BE049493C
:1009B0005031884207D14749091F096841F4702125
:1009C000444A121F1160704710B50022026847F6B2
:1009D000F0739A430C6A8B6823430C6923434C6978
:1009E00023438C692343CC6923434C6A23438C6A99
:1009F00023431A430260CB6843600B6883604B68F3
:100A0000C36010BD0021016041608160C16001616F
:100A100041618161C161016241628162704721B1BE
:100A2000026842F00102026004E002684FF6FE73C1
:100A30001A40026070471AB103680B43036002E07A
:100A400003688B4303607047416070470146486804
:100A500080B2704701460020002201F080531BB194
:100A60001C4B083B1A6802E0194B083B1A6802EA63
:100A700001030BB1012000E00020704700F080511D
:100A800019B11449091F086002E01149083948608A
:100A9000704701460020002201F080531BB10D4B2E
:100AA000083B1A6802E00A4B083B1A6802EA010395
:100AB0000BB1012000E00020704700F0805119B117
:100AC0000449091F086002E001490839486070477D
:100AD0000800024008040240002044490860091D43
:100AE0000860091D0860091D086041483F4914312C
:100AF0000860704700213D498279002A3AD00A46B1
:100B0000126803689A430B461A600A1D126803684C
:100B10009A430B1D1A60027911440A6803681A434C
:100B20000A60324A0832126803689A432F4B08332E
:100B30001A601A1D126803689A432C4B0C331A6012
:100B40004279102A0ED11A1F126803681A43274BE4
:100B500008331A601A1D126803681A43234B0C33BA
:100B60001A600DE02149427911440A6803681A436A
:100B70000A6005E0027911440A6803689A430A6032
:100B800070470021016001710C21417100218171C8
:100B900070471649103109680143144A1032116038
:100BA000704701460020114A143212680A400AB107
:100BB000012000E0002070470C49143108607047A4
:100BC000014600200022094B1B6803EA0102074B83
:100BD00014331B680B4013B10AB1012000E0002060
:100BE000704702491431086070470000000401405A
:100BF000FFFF0F0010B50446CC48844208D1012104
:100C0000042000F02DFB0021042000F029FB46E029
:100C1000C748844208D10121082000F021FB0021AF
:100C2000082000F01DFB3AE0C248844208D10121AF
:100C3000102000F015FB0021102000F011FB2EE029
:100C4000BD48844208D10121202000F009FB002189
:100C5000202000F005FB22E0B848844208D10121A1
:100C6000402000F0FDFA0021402000F0F9FA16E0E3
:100C7000B348844208D10121802000F0F1FA00211C
:100C8000802000F0EDFA0AE0AE48844207D101214D
:100C9000801500F0E5FA0021A01500F0E1FA10BD82
:100CA00010B50121084600F0DBFA0021012000F018
:100CB000D7FA10BD2DE9F04102460025002600209C
:100CC00000230024002791F803C00CF00F0591F8D1
:100CD00003C00CF0100CBCF1000F03D091F802C05F
:100CE0004CEA050591F800C0BCF1000F31D0146842
:100CF00000202BE04FF0010C0CFA00F3B1F800C01B
:100D00000CEA03069E4220D183004FF00F0C0CFA30
:100D100003F7BC4305FA03FC4CEA040491F803C052
:100D2000BCF1280F06D14FF0010C0CFA00FCC2F800
:100D300014C00AE091F803C0BCF1480F05D14FF090
:100D4000010C0CFA00FCC2F810C0401C0828D1D3DA
:100D50001460B1F800C0BCF1FF0F34DD546800200E
:100D60002EE000F1080C4FF0010808FA0CF3B1F87E
:100D700000C00CEA03069E4221D183004FF00F0C05
:100D80000CFA03F7BC4305FA03FC4CEA040491F89F
:100D900003C0BCF1280F05D100F1080C08FA0CF8CB
:100DA000C2F8148091F803C0BCF1480F07D100F1DC
:100DB000080C4FF0010808FA0CF8C2F81080401C2B
:100DC0000828CED35460BDE8F0814FF6FF71018052
:100DD000022181700421C17070470246002093688F
:100DE0000B400BB1012000E00020704701468868ED
:100DF00080B2704702460020D3680B400BB101203F
:100E000000E0002070470146C86880B27047016169
:100E10007047416170470AB1016100E0416170476C
:100E2000C16070474FF480320A4382618161826100
:100E300082698269704702460020434B18684FF66A
:100E40008073184040EA021008433F4B1860704717
:100E50003E49C8617047F0B50A46002300240021CE
:100E6000002500F00046B6F1004F02D1364EF16980
:100E700001E0354E7168C0F3034583B200F44016BB
:100E8000B6F5401F08D121F070612F4E766826F02C
:100E900070662D4F7E6012E000F48016B6F5801F5C
:100EA00006D1032606FA05F4A14341F0706106E07D
:100EB000460D360103FA06F6B14341F0706122B1E6
:100EC000460D360103FA06F6314300F00046B6F14E
:100ED000004F02D11C4EF16101E01B4E7160F0BD6C
:100EE00030B500228B071C0F0F2303FA04F2164BB8
:100EF00008338C1053F824309343134C08348D106E
:100F000044F8253023468C1053F824308C07240FE6
:100F100000FA04F423430C4C08348D1044F82530B7
:100F200030BD0A49DC31086070470000000801400C
:100F3000000C014000100140001401400018014065
:100F4000001C014000200140000001400000204240
:100F5000DF48006840F00100DD490860084640684D
:100F6000DC490840DA49486008460068DA49084028
:100F7000D74908600846006820F4802008600846C9
:100F8000406820F4FE0048604FF41F0088607047FE
:100F9000CF49096821F48031CD4A116011460968B2
:100FA00021F480211160B0F5803F03D0B0F5802F8F
:100FB0000ED106E0C649096841F48031C44A116087
:100FC00007E0C349096841F4A021C14A116000E06B
:100FD00000BF00BF704710B501460022002300206B
:100FE0004A11012A02D1BA4C236806E0022A02D132
:100FF000B74C236A01E0B64C636A01F01F0201247A
:1010000094401C400CB1012000E0002010BD38B518
:10101000002000900024002500BF3120FFF7DBFFF7
:1010200005460098401C00900098B0F5A06F01D0D4
:10103000002DF2D03120FFF7CEFF08B1012400E0EF
:101040000024204638BD01460020A14A106820F047
:10105000F80040EAC10010607047A049086070477E
:10106000024600209A4B586820F47C1042EA0103A3
:101070001843974B58607047984908667047014677
:101080000020934A506820F00300084350607047E6
:101090008F48406800F00C007047014600208C4AE1
:1010A000506820F0F000084350607047014600206F
:1010B000874A506820F4E06008435060704701465A
:1010C0000020834A506820F4605040EAC10050601C
:1010D000704729B17E4A527A02437D4B5A7204E02E
:1010E0007B4A527A82437A4B5A7270477B49D83195
:1010F0000860704701460020754A506820F440405F
:101100000843506070470021714A20321170704AC4
:1011100082F82010012802D004280AD104E001211D
:101120006B4A2032117005E00521694A20321170A6
:1011300000E000BF00BF704769490860704764491C
:10114000096A0143624A116270476549443908607F
:10115000704730B500210022002400235C4D6D68EB
:1011600005F00C0121B1042905D0082923D105E09F
:101170005C4D056022E05B4D05601FE0544D6D68DD
:1011800005F47012524D6D6805F48034022505EBAC
:1011900092421CB9544D554305600BE04C4D6D68AF
:1011A00005F400351DB1504D5543056002E04D4D2D
:1011B0005543056002E04B4D056000BF00BF444D44
:1011C0006D6805F0F0010909484D6B5C0568DD406C
:1011D00045603F4D6D6805F4E061090A434D6B5C65
:1011E0004568DD4085603A4D6D6805F46051C90A77
:1011F0003E4D6B5C4568DD40C560354D6D6805F45E
:101200004041890B3A4D6B5CC568B5FBF3F5056150
:1012100030BD29B12E4A526902432D4B5A6104E078
:101220002B4A526982432A4B5A61704729B1284A96
:1012300092690243264B9A6104E0254A92698243EF
:10124000234B9A61704729B1214AD2690243204B4E
:10125000DA6104E01E4AD26982431D4BDA617047AD
:1012600029B11B4AD2680243194BDA6004E0184ADC
:10127000D2688243164BDA60704729B1144A12696A
:101280000243134B1A6104E0114A12698243104B66
:101290001A61704712494039086070470F49C864A5
:1012A00070470B49C87170470948406A40F0807028
:1012B00007494862704701460020054A92680A4083
:1012C0000AB1012000E00020704701498872704790
:1012D000001002400000FFF8FFFFF6FE000042424F
:1012E0008004424200127A0000093D0024000020E0
:1012F0003400002010B50446FE48844208D1012184
:10130000C014FFF7ADFF0021E014FFF7A9FFC4E010
:10131000B4F1804F08D101210846FFF7AEFF00214C
:101320000120FFF7AAFFB8E0F348844208D1012169
:101330000220FFF7A2FF00210220FFF79EFFACE092
:10134000EE48844208D101210420FFF796FF0021D6
:101350000420FFF792FFA0E0E948844208D1012170
:101360000820FFF78AFF00210820FFF786FF94E09E
:10137000E448844208D101211020FFF77EFF0021BC
:101380001020FFF77AFF88E0DF48844208D101216E
:101390002020FFF772FF00212020FFF76EFF7CE086
:1013A000DA48844208D101214014FFF759FF002197
:1013B0006014FFF755FF70E0D548844209D1012140
:1013C000C804FFF74DFF00214FF40020FFF748FF4E
:1013D00063E0D048844209D101210805FFF740FFAE
:1013E00000214FF48010FFF73BFF56E0CA488442CB
:1013F00009D101214805FFF733FF00214FF4001008
:10140000FFF72EFF49E0C548844208D10121402062
:10141000FFF733FF00214020FFF72FFF3DE0C048DA
:10142000844208D101218020FFF727FF002180207E
:10143000FFF723FF31E0BB48844208D1012180152A
:10144000FFF71BFF0021A015FFF717FF25E0B648A7
:10145000844209D101210804FFF702FF00214FF463
:101460008030FFF7FDFE18E0B048844209D1012129
:101470004804FFF7F5FE00214FF40030FFF7F0FEBF
:101480000BE0AB48844208D101218804FFF7E8FE55
:1014900000214FF48020FFF7E3FE10BD00220288F8
:1014A000944B98420ED0994B98420BD0B0F1804F9C
:1014B00008D0914B984205D0904B984202D0904B67
:1014C000984204D14FF68F731A404B881A438D4BC4
:1014D000984207D08C4B984204D04FF6FF431A40F5
:1014E000CB881A4302808B8883850B880385814BC8
:1014F00098420BD0854B984208D08B4B984205D030
:101500008A4B984202D08A4B984201D10B7A0386CB
:1015100001238382704770B5002400220023058CCC
:101520004FF6FE7635400584028C8388048B4FF697
:101530008F752C40B51E2C400D882C43751E2A40FB
:101540000D892A434D882A436A4DA8420BD06F4D1E
:10155000A84208D0744DA84205D0744DA84202D0CC
:10156000734DA84213D14FF6F7752A404D892A438F
:101570004FF6FB752A408D882A434FF6FF652B40B6
:101580004FF6FF552B408D892B43CD892B4383800C
:101590000483CD888586028470BD70B50024002246
:1015A0000023058C4FF6EF7635400584028C838846
:1015B000048B48F6FF752C404FF6FF452C400D88F4
:1015C0004FF6FF7606EA05252C434FF6DF752A40D5
:1015D0000D8906EA05152A434D8806EA05152A43B2
:1015E000444DA84202D0494DA8421DD14FF67F7507
:1015F0002A404D894FF6FF7606EA05152A434FF635
:10160000BF752A408D8806EA05152A434FF6FF3537
:101610002B404FF2FF752B408D8906EA85052B4341
:10162000CD8906EA85052B4383800483CD88058711
:10163000028470BD70B5002400220023058C4FF693
:10164000FF6635400584028C8388848B4FF68F7546
:101650002C404FF6FC752C400D882C434FF6FF555F
:101660002A400D894FF6FF7606EA05252A434D8864
:1016700006EA05252A431F4DA84202D0234DA84261
:101680001DD14FF2FF752A404D894FF6FF7606EACD
:1016900005252A434FF6FF352A408D8806EA0525A1
:1016A0002A434EF6FF752B404DF6FF752B408D8972
:1016B00006EA05152B43CD8906EA05152B438380E1
:1016C0008483CD888587028470BD70B50022002395
:1016D0000024058C4EF6FF7635400584038C848803
:1016E000828B48F6FF752A404FF6FF452A400D8849
:1016F00020E00000002C01400004004000080040F1
:10170000000C004000100040001400400034014074
:10171000004C0140005001400054014000180040BE
:10172000001C0040002000400040014000440140F7
:10173000004801404FF6FF7606EA05252A434DF69C
:10174000FF752B400D8906EA05352B434D8806EAC7
:1017500005352B43FA4DA84202D0FA4DA84208D1D4
:101760004BF6FF752C408D894FF6FF7606EA8515FE
:101770002C4384808283CD88A0F84050038470BDC0
:10178000828B4FF2FF331A408283828B4FF6FF73B6
:1017900003EA01231A4382837047F0B50C461546CD
:1017A000002200210026078C4EF6FF7C07EA0C077A
:1017B0000784828B018C4FF6FF7707EA043640F6E8
:1017C000FF473A404FF6FF7707EA05273A434FF6BF
:1017D000FF7707EA03373A43D94FB8420ED0D94FC3
:1017E000B8420BD0B0F1804F08D0D74FB84205D0E7
:1017F000D64FB84202D0D64FB84206D14DF6FF7749
:10180000394046F48057394305E047F6FF573940E1
:1018100044F48057394382830184F0BD828B4FF6B4
:10182000F3731A408283828B0A4382837047F0B538
:101830000C461546002200210026078C4FF6FF6C4F
:1018400007EA0C070784828B018C4FF6FF7707EAC3
:1018500004264FF60C773A404FF6FF7707EA031756
:101860002F433A43B64FB8420ED0B64FB8420BD0D2
:10187000B0F1804F08D0B44FB84205D0B34FB84252
:1018800002D0B34FB84206D14FF6FF57394046F465
:101890008077394305E04FF2FF57394044F48077B1
:1018A000394382830184F0BD028B4FF2FF331A402B
:1018B0000283028B4FF6FF7303EA01231A4302836C
:1018C0007047F0B50C461546002200210026078C13
:1018D0004FF6EF7C07EA0C070784028B018C4FF66A
:1018E000FF7707EA041640F6FF473A404FF6FF77C6
:1018F00007EA03373A434FF6FF7707EA05273A43EB
:101900008F4FB8420ED08F4FB8420BD0B0F1804FFE
:1019100008D08D4FB84205D08C4FB84202D08C4FC2
:10192000B84206D14FF6DF77394046F01007394309
:1019300005E04FF65F77394044F0100739430283E2
:101940000184F0BD028B4FF6F3731A400283028BC1
:101950000A4302837047F0B50C4615460022002169
:10196000068C4FF6FE773E400684028B018C4FF6C4
:101970000C7632407E1C06EA03162E433243704E2C
:10198000B0420ED06F4EB0420BD0B0F1804F08D0B5
:101990006D4EB04205D06D4EB04202D06C4EB0429A
:1019A00006D14FF6FD76314044F00106314305E0A3
:1019B0004FF6F576314044F001063143028301844D
:1019C000F0BD70B505460C465D4885420ED05D48B9
:1019D00085420BD0B5F1804F08D05B48854205D0D9
:1019E0005A48854202D05A48854200D100E000BFE3
:1019F000208850B92389A28861882846FFF7ABFF69
:101A0000E1882846FFF79EFF25E0208804280AD1B8
:101A10002389A28861882846FFF753FFE18828467A
:101A2000FFF742FF17E0208808280AD12389A288FF
:101A300061882846FFF7FBFEE1882846FFF7EEFEA7
:101A400009E02389A28861882846FFF7A6FEE1887D
:101A50002846FFF795FE70BD2DE9F04105460C467E
:101A600000260127608808B9022600E00026A08829
:101A7000012801D1022700E001272088A0B923898D
:101A8000A28861882846FFF766FFE1882846FFF7AD
:101A900059FF23893A4631462846FFF712FFE1886D
:101AA0002846FFF701FF13E02389A28861882846B2
:101AB000FFF707FFE1882846FFF7F6FE23893A463D
:101AC00031462846FFF747FFE1882846FFF73AFFEF
:101AD000BDE8F0810A884B881A438B881A43CB886B
:101AE0001A430B891A434B891A438B891A43A0F86E
:101AF000442070474FF6FF71818000210180C18032
:101B00004180017270470021018041808180C18045
:101B1000018141818181C181704700210180418023
:101B2000012181800021C180018170470021018055
:101B300041808180C18001814181818170470000A5
:101B4000002C014000340140000400400008004027
:101B5000000C004021B1028842F00102028004E042
:101B600002884FF6FE731A400280704731B1B0F818
:101B7000442042F40042A0F8442005E0B0F844209C
:101B8000C2F30E02A0F8442070471AB183890B43B8
:101B9000838102E083898B43838170478182704710
:101BA00041EA0203A0F8483070471AB183890B4319
:101BB000838102E083898B438381704701894FF6DB
:101BC000F8721140018170470A46002101894FF6E1
:101BD0008F73194011430181704730B504460D469B
:101BE00029462046FFF7F0FF208940F007002081BA
:101BF00030BD2DE9F04104460D4616461F46602DC6
:101C000006D13B46012231462046FFF75AFE05E049
:101C10003B46012231462046FFF79DFE29462046DD
:101C2000FFF7D2FF208940F007002081BDE8F08156
:101C300030B50C4600210189C9B24FF6FF7505EA9F
:101C40000325154325432943018130BD2DE9F0418A
:101C500005460E4617469846002443463A46314606
:101C60002846FFF7E5FF2C894FF6F870044044F052
:101C700007044FF68F70044044F070042C81BDE8D7
:101C8000F081F0B504460D4616461F463B463246E7
:101C900029462046FFF7CCFF208940F48040208170
:101CA000F0BD0185828270470A46002101884FF607
:101CB0008F731940114301807047F0B50C461546EB
:101CC0001E460021002200230189028B038C4FF65F
:101CD000F877394021434FF6FC473A4040F201176C
:101CE0003A434FF6DD773B404FF6FF7707EA06179A
:101CF0002F433B43018102830384F0BD0A46002148
:101D0000018B4FF68F7319401143018370470A46C8
:101D10000021018B48F6FF7319404FF6FF7303EA69
:101D200002231943018370470A460021818B4FF635
:101D30008F7319401143818370470A460021818BBC
:101D400048F6FF7319404FF6FF7303EA0223194365
:101D50008183704721B1028842F08002028004E052
:101D600002884FF67F731A400280704721B1828843
:101D700042F00402828004E082884FF6FB731A402E
:101D80008280704721B1828842F00802828004E09C
:101D900082884FF6F7731A408280704721B182889B
:101DA00042F00102828004E082884FF6FE731A40FE
:101DB000828070470A460021018B4FF6F773194065
:101DC0001143018370470A460021018B4FF2FF73D4
:101DD00019404FF6FF7303EA02231943018370474A
:101DE0000A460021818B4FF6F77319401143818316
:101DF00070470A460021818B4FF2FF7319404FF65E
:101E0000FF7303EA02231943818370470A460021C6
:101E1000018B4FF6FB7319401143018370470A464B
:101E20000021018B4FF6FF3319404FF6FF7303EA91
:101E300002231943018370470A460021818B4FF624
:101E4000FB7319401143818370470A460021818B3F
:101E50004FF6FF3319404FF6FF7303EA022319438D
:101E6000818370470A460021018B4FF67F7319402A
:101E70001143018370470A460021018BC1F30E0113
:101E80004FF6FF7303EA02231943018370470A46A2
:101E90000021818B4FF67F73194011438183704776
:101EA0000A460021818BC1F30E014FF6FF7303EA4E
:101EB00002231943818370470A460021018C4FF6A3
:101EC000FD7319401143018470470A460021018CBB
:101ED0004FF6F77319401143018470470A460021F9
:101EE000018C4FF6DF7319404FF6FF7303EA0213BC
:101EF0001943018470470A460021018C4FF67F7315
:101F000019404FF6FF7303EA021319430184704727
:101F10000A460021018C4FF6FF5319404FF6FF731C
:101F200003EA02231943018470470A460021018C09
:101F30004FF2FF7319404FF6FF7303EA0223194370
:101F4000018470470A460021018C4DF6FF73194049
:101F50004FF6FF7303EA023319430184704730B52B
:101F6000002301248C40A3B2048C9C430484048C81
:101F700002FA01F5ADB22C43048430BD30B5002324
:101F800004248C40A3B2048C9C430484048C02FA85
:101F900001F5ADB22C43048430BD70B5034600207A
:101FA00000241846183001258D40ACB21D8CA54385
:101FB0001D8409B1082909D100EB6100056825F0ED
:101FC000700505600568154305600EE00D1FC5F33B
:101FD0004E052844056825F4E045056005684FF680
:101FE000FF7606EA02263543056070BD21B10288FE
:101FF00042F00202028004E002884FF6FD731A40AC
:102000000280704721B1028842F00402028004E09D
:1020100002884FF6FB731A400280704721B1828814
:1020200042F08002828004E082884FF67F731A407B
:102030008280704702884FF6F7731A400280028848
:102040000A430280704782884FF68F731A4082805D
:1020500082880A438280704702894FF6F8731A40DB
:10206000028102890A430281704702894FF67F7319
:102070001A40028102890A430281704781847047B5
:1020800081857047818670470187704781877047D7
:10209000A0F84010704702884FF6FF431A400280B4
:1020A00002880A43028070470146888E70470146C5
:1020B000088F70470146888F70470146B1F840008D
:1020C00070470146888C70470146088D704702466C
:1020D0000020138A0B400BB1012000E00020704764
:1020E000CA430282704730B5024600200023002414
:1020F000158A05EA0103958905EA010413B10CB1BB
:10210000012000E0002030BDCA4302827047000079
:1021100010B50446FB48844209D101218803FFF72A
:102120009FF800214FF48040FFF79AF832E0F6481C
:10213000844209D101214804FFF79FF800214FF4A0
:102140000030FFF79AF825E0F048844209D10121D8
:102150008804FFF792F800214FF48020FFF78DF8F4
:1021600018E0EB48844209D10121C804FFF785F843
:1021700000214FF40020FFF780F80BE0E54884428F
:1021800008D101210805FFF778F800214FF48010ED
:10219000FFF773F810BD2DE9F04786B005460E46EF
:1021A0000024A24600BFA1460027B08900B100BFAD
:1021B0002F462C8A4CF6FF700440F08804432C8292
:1021C000AC894EF6F3100440B08831890843718918
:1021D00008430443AC81AC8A4FF6FF400440B08909
:1021E0000443AC8201A8FEF7B4FFC648874202D17F
:1021F000DDF810A001E0DDF80CA0A88900F4004093
:1022000040B10AEBCA0000EB0A1031684900B0FB8C
:10221000F1F807E00AEBCA0000EB0A103168890008
:10222000B0FBF1F86420B8FBF0F004012009642150
:1022300001FB1089A88900F4004040B1322000EB76
:10224000C900B0FBF1F000F00700044308E03220C1
:1022500000EB09106421B0FBF1F000F00F00044323
:102260002C8106B0BDE8F0874FF4165101600021C3
:102270008180C18001810C214181002181817047D1
:1022800010B502460020108A4FF2FF0318400B8859
:102290004C8823438C882343CC88234318431082E3
:1022A00010BD0021018041808180C180704721B133
:1022B000828942F40052828104E082894DF6FF73E4
:1022C0001A4082817047F0B503460024002600259D
:1022D000002040F66A17B94200D100BF1846C1F38A
:1022E000421401F01F06012707FA06F5012C01D15F
:1022F0000C3004E0022C01D1103000E014301AB18F
:1023000007682F43076002E00768AF430760F0BD2E
:102310001AB1838A0B43838202E0838A8B438382D0
:102320007047028A4FF6F0731A400282028A0A430B
:102330000282704782894FF2FF731A40828182893C
:102340000A438281704721B1828942F00202828170
:1023500004E082894FF6FD731A4082817047028A39
:102360004FF6DF731A400282028A0A4302827047E4
:1023700021B1028A42F48042028204E0028A4BF6D2
:10238000FF731A4002827047C1F3080282807047CF
:1023900001468888C0F308007047818941F0010137
:1023A00081817047028BD2B20283028B42EA012202
:1023B00002837047028B02F47F420283028B0A433E
:1023C0000283704721B1828A42F02002828204E0B7
:1023D000828A4FF6DF731A408282704721B1828A67
:1023E00042F01002828204E0828A4FF6EF731A40B4
:1023F0008282704721B1828A42F00802828204E020
:10240000828A4FF6F7731A408282704721B182891F
:1024100042F40042828103E08289C2F30E0282818B
:10242000704721B1828A42F40062828204E0828A8B
:102430004FF2FF731A4082827047828A4FF6FB7315
:102440001A408282828A0A438282704721B1828A3C
:1024500042F00202828204E0828A4FF6FD731A4043
:102460008282704702460020B1F5007F00D100BF94
:1024700013880B400BB1012000E00020704701F4ED
:102480000072B2F5007F00D100BFCA4302807047DE
:1024900070B50246002400230025002040F66A168D
:1024A000B14200D100BFC1F3421501F01F03012664
:1024B00006FA03F3012D02D19689334006E0022D7E
:1024C00002D1168A334001E0968A33400C1201266D
:1024D00006FA04F41688344013B10CB1012000E070
:1024E000002070BD10B50022002340F66A14A142FE
:1024F00000D100BF0A1201249440A3B2DC4304803F
:1025000010BD000000380140004400400048004079
:10251000004C00400050004010B56FF00400FEF782
:1025200092F92E4800682E49B0FBF1F02D49087051
:102530000846007800EB4001C1EBC0104FF6FF7178
:1025400001EAC0002849088010BD0146254A1278DA
:102550004A434FF0E0235A6100229A611A461269F9
:1025600042F001021A6100BF4FF0E022106900F052
:1025700001021AB100F48032002AF5D04FF0E022B7
:10258000126922F001024FF0E0231A6100229A61E1
:1025900070470146144A12884A434FF0E0235A61BB
:1025A00000229A611A46126942F001021A6100BFC4
:1025B0004FF0E022106900F001021AB100F48032FD
:1025C000002AF5D04FF0E022126922F001024FF00C
:1025D000E0231A6100229A61704700001000002079
:1025E00000127A00380000203A00002000BF704737
:1025F00000BF4A4A128802F04002002AF9D0C2B253
:10260000464B1B1D1A80704710B586B00446012149
:1026100044F20400FEF70AFE4FF40070ADF8140017
:1026200003208DF8160018208DF8170005A93C48E6
:10263000FEF740FB4FF48060ADF8140004208DF8E5
:10264000170005A93648FEF735FB25208DF8000058
:1026500003208DF801008DF8020001208DF80300A1
:102660006846FEF7A6F801940020ADF80800ADF822
:102670000A00ADF80C00ADF810000C20ADF80E000B
:1026800001A92648FFF787FD012240F22551234882
:10269000FFF719FE01212148FFF709FE06B010BD22
:1026A00010B540F225511D48FFF7F2FE10B31B484C
:1026B000FFF76EFEC4B21B48008800F40040C8B9A2
:1026C0001848008800F4804060B10A2C03D0002034
:1026D0001449088020E01348008840F40040114964
:1026E000088019E00D2C06D10E48008840F4804087
:1026F0000C49088010E00B480088C0F30D000A491F
:102700000C5408480088401C064908800846008888
:10271000C72801DD0020088010BD000000380140FE
:1027200000080140400000205C00002008B50121A5
:102730002020FEF77BFD10208DF803000420ADF86B
:10274000000003208DF8020069460A48FEF7B2FA3D
:1027500004210848FEF75BFB08BD10B504210548BD
:10276000FEF757FB10BD10B504210248FEF74FFBE2
:1027700010BD00000014014008B501211420FEF72F
:1027800055FD01212548FEF766FB48208DF8030022
:102790002020ADF8000003208DF802006946204893
:1027A000FEF788FA48208DF803004FF40040ADF89A
:1027B000000003208DF8020069461A48FEF77AFAF5
:1027C00008BD10B5002420211548FEF706FB68B9A6
:1027D0000A20FFF7DEFE00BF20211148FEF7FDFAB8
:1027E0000028F9D00A20FFF7D4FE01244FF400415D
:1027F0000C48FEF7F2FA70B90A20FFF7CAFE00BFD4
:102800004FF400410748FEF7E8FA0028F8D00A2004
:10281000FFF7BFFE0224204610BD0000000230007A
:10282000001001400008014008B501211020FEF70A
:10283000FDFC10208DF8030003208DF8020001201C
:10284000ADF800006946FA48FEF734FA4FF400503C
:10285000ADF800006946F648FEF72CFA0122114651
:10286000F348FEF7D8FA01225103F148FEF7D3FAF4
:1028700008BD10B501225103ED48FEF7CCFA012244
:102880001146EB48FEF7C7FA00224FF40051E84822
:10289000FEF7C1FA00220121E548FEF7BCFA10BD9F
:1028A00010B500224FF40051E148FEF7B4FA0122BE
:1028B0001146DF48FEF7AFFA01225103DC48FEF76C
:1028C000AAFA10BD70B50546002414E0802020410E
:1028D00000EA05024FF40051D548FEF79CFA0122A8
:1028E0001146D348FEF797FA00220121D048FEF79F
:1028F00092FA601CC4B2082CE8DB01221146CC48D5
:10290000FEF789FA00220121C948FEF784FA70BD5A
:1029100010B50446FFF7ADFF7820FFF7D3FF002086
:10292000FFF7D0FF2046FFF7CDFFFFF7B9FF10BD3F
:1029300010B50446FFF79DFF7820FFF7C3FF402046
:10294000FFF7C0FF2046FFF7BDFFFFF7A9FF10BD4F
:1029500070B505460C4645F0B000FFF7D9FF1021D1
:1029600041EA1410FFF7D4FF04F00F00FFF7D0FF87
:1029700070BD70B500240EE000212046FFF7E8FF8F
:10298000002504E00020FFF7D3FF681CC5B2802DAE
:10299000F8DB601CC4B2082CEEDB70BD2DE9F04101
:1029A00005460E461746721ED206110E6A1E5206C4
:1029B000100EFFF7CDFF002409E0A7F120019D4A8A
:1029C00002EB0111085DFFF7B3FF601CC4B2082CD5
:1029D000F3DB721ED206110E6A1E012303EB4202C4
:1029E000D0B2FFF7B5FF00240BE0A7F12001914A18
:1029F00002EB011204F10801505CFFF799FF601C23
:102A0000C4B2082CF1DBBDE8F0812DE9F0410746A6
:102A10000E461546002407E02A5D3019C1B238463B
:102A2000FFF7BCFF601CC4B2285D0028F4D1BDE8EC
:102A3000F08110B50246012000E050430B1EA1F1C9
:102A40000101FAD110BD2DE9F04780460E46174628
:102A50001D46002415E0281B411E0A20FFF7E9FF50
:102A6000B7FBF0F00A21B0FBF1F201FB120000F11C
:102A700030093019C1B24A464046FFF78FFF601C4B
:102A8000C4B2AC42E7DBBDE8F0872DE9F0478146F0
:102A9000884615461E46002D06DB2B224146484639
:102AA000FFF77CFF2F4605E02D2241464846FFF701
:102AB00075FF6F42002417E0301B411E0A20FFF70C
:102AC000B8FFB7FBF0F00A21B0FBF1F201FB1200F6
:102AD00000F1300A08EB0400401CC1B252464846DF
:102AE000FFF75CFF601CC4B2B442E5DBBDE8F087D1
:102AF0002DE9F04781460E4690461F4600241DE012
:102B0000381B411E1020FFF794FFB8FBF0F000F0D7
:102B10000F050A2D08DA05F13000C2B23019C1B232
:102B20004846FFF73BFF07E005F13700C2B2301916
:102B3000C1B24846FFF732FF601CC4B2BC42DFDBC3
:102B4000BDE8F0872DE9F04780460E4617461D4642
:102B5000002412E0281B411E0220FFF76AFFB7FB8A
:102B6000F0F000F0010000F130093019C1B24A461E
:102B70004046FFF713FF601CC4B2AC42EADBBDE87D
:102B8000F08770B5002406E0002500E06D1CB5F567
:102B90007A7FFBD3641CB4F57A7FF5D3FFF744FE4C
:102BA000AE20FFF7B5FED520FFF7B2FE8020FFF77D
:102BB000AFFEA820FFF7ACFE3F20FFF7A9FED32011
:102BC000FFF7A6FE0020FFF7A3FE4020FFF7A0FEC0
:102BD000A120FFF79DFEC820FFF79AFEDA20FFF73D
:102BE00097FE1220FFF794FE8120FFF791FECF2081
:102BF000FFF78EFED920FFF78BFEF120FFF788FE4E
:102C0000DB20FFF785FE3020FFF782FEA420FFF7D0
:102C10007FFEA620FFF77CFE8D20FFF779FE1420B3
:102C2000FFF776FEAF20FFF773FEFFF7A2FE70BD41
:102C300000100140305500081FB501210820FEF7A3
:102C4000F5FA01210846FEF7F1FA48208DF80F0049
:102C50004FF48040ADF80C0003208DF80E0003A95E
:102C60001948FEF727F80E210120FEF739F94FF435
:102C70008040019001208DF80A0000208DF80800A6
:102C80000C208DF8090001A8FDF734FF4FF4A06077
:102C9000FDF78AFD28208DF8000001208DF8030043
:102CA0008DF801008DF802006846FDF782FD1FBD1A
:102CB00010B54FF48040FDF783FF012802D1800357
:102CC000FDF78FFF10BD0000000C01401FB5012172
:102CD0000820FEF7ABFA01210846FEF7A7FA4820C4
:102CE0008DF80F000320ADF80C008DF80E0003A93D
:102CF0003448FDF7DFFF00210120FEF7F1F8012144
:102D00000846FEF7EDF80320019001208DF80A0037
:102D100000208DF808000C208DF8090001A8FDF7AF
:102D2000E9FE4FF4A060FDF73FFD06208DF800009E
:102D300001208DF803008DF801008DF8020068462F
:102D4000FDF737FD07208DF8000001208DF8030006
:102D50008DF8010002208DF802006846FDF729FD7C
:102D60001FBD1949B1F900000021174A11807047B1
:102D700010B50120FDF724FF01280DD101211148D4
:102D8000FEF72BF828B910480088401E00B20E4903
:102D900008800120FDF725FF10BD10B50220FDF7CA
:102DA0000FFF01280DD102210648FEF716F828B9B9
:102DB00005480088401C00B2034908800220FDF746
:102DC00010FF10BD000C01404200002000B589B08A
:102DD00001214803FEF72AFA01211120FEF726FA05
:102DE00018208DF823004FF47070ADF820000320F8
:102DF0008DF8220008A93A48FDF75CFF3948FEF734
:102E0000DDFE3848FEF776FA0020ADF81A00ADF87E
:102E100016006320ADF818002320ADF81400002040
:102E20008DF81C0005A92F48FEF738FB01A8FEF716
:102E30006AFE7020ADF804000220ADF80C000120FD
:102E4000ADF806000020ADF80A0001A92548FEF7FC
:102E500062FB01A92348FEF7A0FB01A92148FEF768
:102E6000E9FB01A91F48FEF730FC08211D48FEF7C9
:102E7000A1FF08211B48FEF7A6FF08211948FEF70D
:102E8000AFFF08211748FEF7B4FF01211548FEF7F0
:102E90006DFE01211348FEF75DFF01211148FEF789
:102EA00059FE09B000BD10B5044621460D48FFF794
:102EB000E9F810BD10B5044621460A48FFF7E4F8CA
:102EC00010BD10B5044621460648FFF7DFF810BDD7
:102ED00010B5044621460348FFF7DAF810BD00009C
:102EE000001001400034014038B504460121102093
:102EF000FEF79CF910208DF803000C20ADF80000BF
:102F000003208DF802006946B348FDF7D3FE4FF465
:102F10004070ADF800006946B048FDF7CBFE3020A8
:102F2000ADF800006946AE48FDF7C4FE0320ADF8D9
:102F300000006946A948FDF7BDFEFFF747FF38BD11
:102F400010B500224FF40071A448FDF764FF012280
:102F50001102A248FDF75FFF10BD10B5002220212D
:102F60009F48FDF758FF012210219D48FDF753FFB0
:102F700010BD10B5002204219748FDF74CFF012237
:102F800008219548FDF747FF10BD10B5002202212A
:102F90009248FDF740FF012211469048FDF73BFFA4
:102FA00010BD10B500224FF480718C48FDF733FF3F
:102FB00000224FF400718948FDF72DFF10BD10B5B8
:102FC000002220218648FDF726FF00221021844898
:102FD000FDF721FF10BD10B5002208217E48FDF746
:102FE0001AFF002204217C48FDF715FF10BD10B523
:102FF000002201217948FDF70EFF002202217748C7
:10300000FDF709FF10BD10B5012251027348FDF70D
:1030100002FF00224FF480717048FDF7FCFE10BDE6
:1030200010B5012220216E48FDF7F5FE0022102187
:103030006B48FDF7F0FE10BD10B501220421664873
:10304000FDF7E9FE002208216348FDF7E4FE10BD0C
:1030500010B5012202216148FDF7DDFE00220121A9
:103060005E48FDF7D8FE10BD10B5FFF769FFFFF70A
:1030700074FFFFF77EFFFFF788FF10BD10B5FFF765
:10308000C2FFFFF7CDFFFFF7D7FFFFF7E1FF10BD4E
:1030900010B5FFF7C5FFFFF753FFFFF7CDFFFFF7B1
:1030A00074FF10BD10B5FFF7AEFFFFF756FFFFF737
:1030B000CFFFFFF75EFF10BD10B5FFF741FFFFF731
:1030C0007EFFFFF788FFFFF760FF10BD10B5FFF729
:1030D0009AFFFFF774FFFFF77EFFFFF7B9FF10BD00
:1030E00010B5FFF75EFFFFF738FFFFF742FFFFF76E
:1030F0007EFF10BD10B5FFF754FFFFF791FFFFF7FC
:103100009BFFFFF774FF10BD10B5FFF77CFFFFF7C3
:1031100024FFFFF791FFFFF738FF10BD10B5FFF751
:103120000FFFFFF77DFFFFF724FFFFF791FF10BDB3
:103130002DE9F04104460D4616461F46002C05DDDC
:10314000FFF7FEFEA0B2FFF7AEFE0AE0002C06DAA3
:10315000FFF759FF614288B2FFF7A5FE01E0FFF7D4
:1031600020FF002D05DDFFF7F8FEA8B2FFF7A2FE55
:103170000AE0002D06DAFFF753FF694288B2FFF735
:1031800099FE01E0FFF71BFF002E05DDFFF7F1FEC2
:10319000B0B2FFF796FE0AE0002E06DAFFF74CFF0A
:1031A000714288B2FFF78DFE01E0FFF714FF002F98
:1031B00005DDFFF7EAFEB8B2FFF78AFE0AE0002F4E
:1031C00006DAFFF745FF794288B2FFF781FE01E09A
:1031D000FFF70DFFBDE8F08100100140000C014039
:1031E0000008014000B589B001210420FEF71EF857
:1031F00001210820FEF727F80220ADF82000282042
:103200008DF8230003208DF8220008A99848FDF7C7
:1032100051FD02219648FDF7FAFD42F21070ADF81B
:1032200014004720ADF810000020ADF81600ADF8EE
:10323000120004A98F48FEF731F90420ADF804000C
:103240000020ADF806000120ADF808000020ADF820
:103250000A000320ADF80C0001A98648FEF7B1FB77
:1032600001218448FEF776FC32208DF81C000120F5
:103270008DF81D0003208DF81E0001208DF81F0021
:1032800007A8FDF796FA012205217A48FEF77DFC92
:1032900009B000BD10B501217648FEF724FFF8B152
:1032A0007548007800F08000D0B17348007820F0B5
:1032B0001000714908700846007800F00F0020B92E
:1032C0000846007840F0400008706B48007800F035
:1032D0000F000E2805DA68480078401C664908701F
:1032E0000AE06548007820F08000634908700846CD
:1032F000007800F0F000087004215E48FEF7F3FE4D
:10330000002810D05D48006870B102215948FEF7CE
:10331000E5FD00215748FEF7B1FE5748007840F020
:1033200010005549087070E05248FEF7C0FE54493D
:10333000088000214F48FEF7D1FD4F48007800F08B
:10334000100000285BD04C48007800F08000E8B303
:103350004B480088B0F5967F0DDD49480088B0F5F0
:10336000487F08DA47480068400046490860084638
:103370000068086043E042480088B0F5AF6F0FDD99
:103380003F480088B0F5E16F0ADA3E480068400027
:103390003C4908600846006840F0010008602EE0E3
:1033A0003748008840F69801884228DD3448008874
:1033B00040F62821884222DA33480078401C3249FE
:1033C00008702D48007800F0F00000E002E02A4983
:1033D000087014E02A48008841F2680188420EDD36
:1033E0002748008841F25C21884208DA22480078A8
:1033F00040F08000204908700020234908701E48D2
:10340000007820F010001C49087005211948FEF7CB
:1034100067FE10BD10B50020174B1B7803F040036A
:103420002BB3184B1B68190E164B1B68C3F30742CE
:10343000D343DBB28B420BD151B9124B1B88C3F380
:103440000721104B1A78D343DBB28B4200D10846D8
:1034500020B1094B1B7803F0800343B9064B1B785E
:1034600023F04003044C23700023074C237010BD4D
:1034700000080140000C00404400002004012142EB
:1034800046000020480000204C0000204F480078F3
:103490004F490978084440B24C4908704D480078BB
:1034A0004B490978084440B24A4908704A480078B4
:1034B00047490978084440B24749087047480078AE
:1034C00043490978084440B24449087070473F486E
:1034D00000783F490978401A40B23C4908703D489D
:1034E00000783B490978401A40B23A4908703A4896
:1034F000007837490978401A40B237490870374890
:10350000007833490978401A40B23449087070474E
:103510005A202E4908702F4908702F4908702F49EA
:1035200008707047A620294908702A4908702A495E
:1035300008702A490870704710B50323234890F992
:10354000002008210120FFF7A0FA0323214890F969
:10355000002008210220FFF798FA03231E4890F963
:10356000002008211846FFF790FA03231B4890F922
:10357000002008210420FFF788FA10BD10B5134879
:1035800090F9000000280EDD144890F90030124830
:1035900090F900200F4890F900100C4890F90000B5
:1035A000FFF7C6FD11E00D4890F9000043420A48BC
:1035B00090F900004242074890F900004142034858
:1035C00090F900004042FFF7B3FD10BD010000205C
:1035D000060000200200002003000020040000205C
:1035E0002DE9F0474FF0010940F22551D548FEF78B
:1035F0004FFF00287ED0D348FEF7CAFE44B2D2481F
:10360000D2490988445490F900005B3028B14FF04A
:1036100000090020CD49088001E04FF00109B9F10F
:10362000010F0AD1C9480088401CC84908800846D3
:103630000088062801DD00200880C3484078C4497E
:103640000870C1488078C3490870BF480079C249F2
:103650000870BF4991F90010BE4A92F90020114448
:10366000BD4A92F90020881801F049FE0746BB4A7E
:10367000BB4B01F05BFE054601F012FE40B2B949BA
:103680000870B34991F900104942B24A92F90020FA
:103690001144B14A92F90020881A01F030FE074621
:1036A000AE4AAF4B01F042FE054601F0F9FD40B2D3
:1036B000AD490870A64991F900104942A54A92F90E
:1036C00000201144A44A92F90020881801F017FE46
:1036D0000746A24AA24B01F029FE054601F0E0FD93
:1036E00040B2A24908709A4991F90010994A92F99A
:1036F000002000E01FE01144974A92F90020881A48
:1037000001F0FDFD0746954A954B01F00FFE054679
:1037100001F0C6FD40B296490870084690F90030A5
:10372000924890F90020904890F900108D4890F947
:103730000000FFF7FDFCBDE8F08710B5044644B17A
:1037400000218C48FEF79AFC01218A48FEF702FA14
:1037500003E000218748FEF7FDF910BD7FB505465F
:103760000C4601210420FDF76EFDADF80450ADF8C4
:1037700000400020ADF80600ADF8020069467D4823
:10378000FDF78CFE012211467A48FEF7FEF91E2055
:103790008DF80C0001208DF80D0002208DF80E0030
:1037A00001208DF80F0003A8FDF703F87FBD70B569
:1037B0008CB006460C46154601210846FDF729FD4A
:1037C0003046FDF75FF80194029510200390002029
:1037D00004900590802006900020079008900990A2
:1037E0004FF480500A9000200B9001A93046FDF75D
:1037F000EBF80CB070BD10B586B004460121042072
:10380000FDF714FD01214804FDF71DFD4D48FEF7AD
:103810007FFC0420ADF8100003208DF81200182062
:103820008DF8130004A95448FDF744FA0820ADF8B8
:10383000100004208DF8130004A94F48FDF73AFA50
:1038400000940020ADF80400ADF80600ADF80800C3
:10385000ADF80C000C20ADF80A0069463948FEF7B7
:103860009AFC012280213748FEF752FD434A354930
:10387000091D4348FFF79BFF01213248FEF717FD62
:10388000012240F225512F48FEF71DFD26208DF81C
:10389000140002208DF8150003208DF81600012079
:1038A0008DF8170005A8FCF784FF41F61F4140F290
:1038B000E730FFF753FF002024490880FFF73DFF62
:1038C00006B010BD70B504460D4600212046FDF738
:1038D000A6F829462046FDF7B7F801212046FDF756
:1038E0009EF870BD0FB438B505A800902348009A23
:1038F000049900F049F80020009000BF2048FDF72F
:10390000A5F80028FAD11D4800F05EF9C4B221469E
:103910001B48FFF7D7FF38BC5DF814FB10B5012139
:103920001448FEF7E0FB60B10848008840F400400E
:103930000649088001210F48FEF7E6FB0020FFF74B
:10394000FCFE10BD004400404E0000205800002046
:103950005500002056000020570000209A999999A0
:103960009999E93F01000020020000200300002097
:103970000400002000080040000801402801002049
:1039800080000240704700001CB50C46064B7B448B
:1039900069460090204600F04AFA04460020694635
:1039A00000F058FA20461CBDC3040000F0B40D46D8
:1039B0000188090502D5214C7C4402E01F4C7C445F
:1039C0000E34002100F1240608E002F00F0712096E
:1039D000E75D42EA03721B097754491C52EA030768
:1039E000F3D102780023120704D5702D06D009B157
:1039F000022311342246F0BC00F06BB901231034CD
:103A0000F8E770B504460D462146106800F02FF91E
:103A1000024629462046BDE870400023C6E7D21D75
:103A200022F00703D3E90023C0E70368126843F0DC
:103A3000200303600823C3610023B7E7642100006B
:103A40002DE9F05F894604464FF0000ADFF874B1B3
:103A5000FB44C0F820A02046E1688847002874D0C5
:103A6000252806D0D4E901219047206A401C206215
:103A7000F1E700265F462046E16888472028054692
:103A800007DB312D05D2781910F8200C08B1064358
:103A9000F1E7B00701D526F00406C4F81CA0002702
:103AA000C4F818A02A2D09D0284601F0C6FB38B367
:103AB00004EB8708303DC8F8185019E059F8041B8A
:103AC000204604EB87029161E1688847012F054693
:103AD00018D1E069002820DA26F020061DE0D8F889
:103AE000180000EB800005EB40003038C8F81800E3
:103AF0002046E1688847054601F09FFB0028EED18B
:103B0000012F0AD02E2D08D12046E16888477F1C5E
:103B10000546022F46F02006C4DBA069002803DA20
:103B2000404246F00106A061F00701D026F01006E1
:103B30006C2D0BD0682D09D04C2D39D06A2D35D085
:103B4000742D35D07A2D33D016E038E0E1682F4659
:103B500020468847B842054609D16C2F26D04FF43D
:103B60008060E168064320468847054604E06C2FE4
:103B70001AD04FF4807006430DB3A5F14100192807
:103B800002D8203546F400664A462946204626607B
:103B90004E46FCF707FB80B101280BD0F61D26F03E
:103BA000070000F1080956E74020E4E78020D8E745
:103BB0000020D6E706F104094DE7284652E7206ABF
:103BC000BDE8F09FF420000010B5431C02E010F89F
:103BD000011B71B18107FAD14FF0013202C88C1A72
:103BE0008C4314EAC211F9D0C01A0A0603D0C01ED1
:103BF00010BDC01A10BD0A0401D0801E10BD0902FC
:103C0000FCD0401E10BD704770477047704770B5BC
:103C1000044685690068C10601D5302600E02026EB
:103C2000C00707D070BDD4E9012130469047206A13
:103C3000401C20626D1EF6D570BD70B504468569C6
:103C40000078C00707D170BDD4E90121202090473A
:103C5000206A401C20626D1EF6D570BD09684A05B9
:103C600001D540B27047C905FCD500B2704709685C
:103C70004A0501D5C0B27047C905FCD580B270476E
:103C800070B50C460546012A05D02878800600D577
:103C9000EA69002302E0012305E05B1C934202D2A3
:103CA000E05C0028F9D1A869E618C01AA861286A62
:103CB000184428622846FFF7AAFF04E0D5E901214D
:103CC00014F8010B9047B442F8D32846FFF7B5FF2C
:103CD00070BD2DE9F0470D4699469246044600F125
:103CE00024080168880604D5E06921F010012160EC
:103CF00000E00120A84201DD471B00E00027A16988
:103D00007A1902EB0900081AA0612078C00602D4D3
:103D10002046FFF77CFF002608E0D4E901211AF8CD
:103D200006009047206A401C761C20624E45F4DB5A
:103D30002078C0060AD52046FFF769FF06E0D4E9DF
:103D4000012130209047206A401C2062381EA7F1D4
:103D50000107F4DC07E0D4E9012118F805009047D9
:103D6000206A401C2062281EA5F10105F3DC2046D4
:103D7000FFF763FF2078000602D50220BDE8F08738
:103D80000120FBE72DE9F041064600241068752963
:103D9000314616A510D0FFF761FF002802DA404235
:103DA00013A507E031688A0701D512A502E049078B
:103DB00004D511A5012401E0FFF759FF00210A22D3
:103DC00006F1240709E0B0FBF2FCB0FBF2F302FBC2
:103DD0001C00303078541846491C0028F3D1234683
:103DE0002A463046BDE8F041FFF773BF00000000EF
:103DF0002D0000002B000000200000001168026868
:103E0000006A530501D508700AE0D30501D5088082
:103E100006E0130603D5C217C1E9000200E00860FE
:103E20000120704701694A1C02610878704700B59B
:103E30008FB0CDE901310021059105497944CDE9E3
:103E4000031011466846FFF7FBFD0FB000BD0000F0
:103E5000E5FFFFFF0A6802F8010B0A6070470000E7
:103E60002DE9FF5F15468A460446DFF8AC80F8442A
:103E70000027D8E900103E46CDE9001010E03AF8DE
:103E800016106A4602A800F0BBFC411C07D021783E
:103E9000890603D5E269391891420DD80744761C8A
:103EA0002078800602D5E069B84205DDAE42E6DB47
:103EB0003AF816000028E2D1A069C01BA061204694
:103EC000FFF7A5FED8E90010CDE90010002017E0AB
:103ED0003AF818106A4602A800F092FCB0F1FF3FD1
:103EE00081460BD000250DF1080B05E0D4E9012136
:103EF0001BF8050090476D1C4D45F7D308F10100F4
:103F0000B0428046E4DB206A384420622046FFF756
:103F100094FEBDE8FF9F0000EA1C00002DE9F0417F
:103F20008046D21D22F007020025D2E90002F529C1
:103F300015A614D0011E72F1000106DA0023D0EBA1
:103F4000030063EB020211A608E0D8F800108B070B
:103F500001D50FA602E0490701D50EA6012511469D
:103F6000002408F1240704E000F04EF830323A55FE
:103F7000641C50EA0102F7D12B46324621464046E6
:103F8000BDE8F041FFF7A5BE000000002D000000D5
:103F90002B0000002000000030B4002100F12404B8
:103FA00008E002F00705D208303542EA4372DB0828
:103FB0006554491C52EA0305F3D10468002310A29A
:103FC000250708D504F020040C4304D0C46901235C
:103FD0000CA2641EC46130BCFFF77BBE10B5044662
:103FE00021461068FFF743FE02462046BDE8104018
:103FF0000023D1E7D21D22F00701D1E90023CBE74E
:10400000000000003000000030B5B0F10A024FEAB5
:10401000900E71F100034EEA817EB0EB0E0061EB71
:1040200091014FEA101E4EEA017E10EB0E0041EBAB
:1040300011114FEA102E4EEA016E10EB0E0041EB0B
:1040400011214FEA104E4EEA014E10EB0E0041EBEB
:104050001141401841F100014FEAD00040EA41709F
:104060004FEAD10110EB80054FEA810444EA9074D5
:1040700044EB01046D1944EB0404521BA3414FF0BF
:10408000000348BF0A3200D530BD401C41F1000199
:1040900030BD70472DE9FF4F0C461E464FF0FF37ED
:1040A0008BB0D2E90001DDF860800A908A46C1F346
:1040B0000A5505B93D46002108464FF00000BAF107
:1040C000000F00F4400005DA00EB80004FF44001DF
:1040D00001EA50004FEA9059B9F1010F00DDB946ED
:1040E0000A9850EA4A000ED044F61050A5F2FF3567
:1040F00045432F14B8F1000F1ED07542291E1EDD56
:10410000C9F100021CE0B8F1010F4FF0000001D02E
:10411000302103E0F24305E02154401CB042FBDBB8
:1041200030460022002121540B99C1F80880C1E9D2
:1041300000200FB0BDE8F08FBD1B6D1CDEE74A46C6
:1041400000DA694206A800F0EDFB06AB93E8070031
:1041500003AB83E8070050460A9900F09FFC8DE806
:104160000700A0F500501F3800900398002D09DDCE
:1041700042F21F014A46084403A90390684600F032
:10418000FEFE08E0A0F500504A461F3803A9039040
:10419000684600F008FF8DE807000004000C03D01B
:1041A0004FF0FF30410800E01046B8F1000F03D097
:1041B0000022009215461EE0751E05D4FFF724FF6D
:1041C000303262556D1EF9D5B3460122084302D044
:1041D00000227F1C04E02078302801D100227F1EBD
:1041E000002A099786D01DE0112D07DAFFF70CFF92
:1041F000303262556D1C50EA0102F5D1084302D0FD
:104200000098C8B10EE00021681E05E0235C625CE6
:1042100063542254401E491C8142F7DBAB46A81B65
:10422000401E0990002004F80B000B98099AC0F872
:104230000880C0E9002B7CE711264FF0000859E701
:104240002DE9F04F88460446D21D22F0070191B0B7
:10425000D1E90001CDE90A0100F0DBFF02460B982D
:10426000C00F01D02D2007E02068810701D52B2049
:1042700002E0202101EAC000032A099001D0072AA8
:1042800005DB03464146204600F00CFB0BE120789D
:10429000800601D5E06900E00620B8F1650F81468F
:1042A00006D0B8F1660F18D0B8F1670F70D131E0C1
:1042B0000020B9F1110F009001DB112301E009F199
:1042C00001030AAA01A90CA8FFF7E4FEDDE90C70BE
:1042D000002609F10105834647E001204B46009086
:1042E0004FF000470AAA01A90CA8FFF7D3FEDDE9A9
:1042F0000DB00C995D46002610B909F101000D18AA
:10430000B9EB050003D4C0F1FF3609F10105A5EBB7
:1043100009002BE0B9F1010F01DA4FF0010900208B
:10432000B9F1110F0090484601DD112300E003466A
:104330000AAA01A90CA8FFF7ADFEDDE90C704D46F5
:1043400000268346207800070AD4AB4500DA5D4694
:1043500001A8012D04DD411911F8011C302907D0F5
:104360004F4502DA17F1040F04DA012082460FE00C
:104370006D1EEEE7002F02DCED1B3E4403E0781CCF
:10438000A84200DD7D1CB81B00F1010A4FF0004778
:104390002078000703D4AA4501DB4FF0FF3A002143
:1043A000B7F1004F0DF143088DF8431024D00220DF
:1043B0002B23002F01DA7F422D230A21021EA0F1B8
:1043C000010000DC5FB197FBF1FC97FBF1F201FB10
:1043D0001C7C17460CF1300C08F801CDEEE7A8F173
:1043E000010003702188090501D5452100E0652100
:1043F000A0F1010800F8011C09980FA9A1EB08071A
:10440000FF1D00B10120411901EBEA70A169384498
:10441000081A401EA0612078C00602D42046FFF78B
:10442000F6FB099828B1D4E901219047206A401C85
:1044300020622078C00622D52046FFF7E8FB1EE068
:10444000002E04DBB34502DD01A8805D00E03020D2
:10445000D4E901219047206A401C2062761CAAF111
:1044600001005FEA000A0AD100F018FAC06801688A
:10447000405CD4E901219047206A401C2062281E3C
:10448000A5F10105DCDC07E0D4E9012118F8010BF6
:104490009047206A401C2062381EA7F10107F3DC18
:1044A0002046FFF7CAFB032011B043E62DE9F04F89
:1044B00004460D46D21D22F0070089B0D0E90092D3
:1044C00048461746394600F0A4FE0246F80F01D0D0
:1044D0002D2307E02068810701D52B2302E020214E
:1044E00001EAC0038DF820300BB1012000E000206C
:1044F000032A824601D0072A04DB2946204600F021
:10450000D1F93DE12078800601D40D2500E0E56970
:10451000C7F30A560D2D49DA00214FEA175B08460A
:104520004FF00000002F00F4400007DA00EB80009D
:104530004FF4400100EBD07001EA600081150129C1
:1045400001DD4FF0FF3100224FEA850CBCF1180F5E
:1045500006D31346ACF118004FF08052C24003E07E
:104560004FF4801323FA0CF30CF10C0CBCF1200F68
:1045700004D3ACF1200C09FA0CF001E007FA0CF0BE
:1045800000294FF0004801DD18B90FE00ED1404579
:104590000CD319EB02095F4121B9404502D19F4379
:1045A00029EA0209BBEB175F00D0761C20880005C2
:1045B00002D57B48784402E079487844193808AA43
:1045C000302302F80A30037C0AF10101002E0AF1BF
:1045D000020A53546A4602DC4FF0300101E04FF00A
:1045E00031014FF001088DF8001002D0A6F2FF361D
:1045F00003E059EA470100D06A4E002D02DC217821
:10460000090704D54FF002082E218DF80110C44689
:1046100000210BE0C7F303433F01C35C491C6D1E3F
:1046200002F80830052908F1010801DA002DF1DC53
:1046300000210CE000EB1973491C1B786D1E082942
:1046400002F808304FEA091908F1010801DA002DD3
:10465000F0DC2178890602D514E0A8F10108E045D4
:1046600005DD02EB080111F8011C3029F5D0B8F185
:10467000000F07DD02EB080111F8011C2E2901D102
:10468000A8F10108002D05DD3E2102F808106D1E7D
:1046900008F10108407C002E02F8080008F101082A
:1046A00004DA2D20764202F8080002E02B2002F8FE
:1046B00008000A214FF47A70864208F101080BDBEA
:1046C00096FBF0F3303302F8083096FBF0F308F174
:1046D000010800FB136601E0642E0CDB642096FBEE
:1046E000F0F3303302F8083096FBF0F308F10108DC
:1046F00000FB136601E00A2E06DB96FBF1F030307A
:1047000002F8080008F1010896FBF1F001FB1060C7
:10471000303002F80800A16908F1010808EB050231
:1047200002EB0A00081AA0612078C00602D42046D5
:10473000FFF76DFA216A08AE01EB0A00206204E07F
:10474000D4E9012116F8010B9047BAF1010AF7D21A
:104750002078C00602D52046FFF759FA6E4609E0D8
:1047600016F8010B3E280FD0D4E901219047206AAA
:10477000401C2062B8F10108F2D22046FFF75DFA32
:1047800009B00320BDE8F08F206A2844206203E0CE
:10479000D4E90121302090476D1EEBD3F8E70000EB
:1047A000BF15000002FCFFFF10B5436913B1AFF362
:1047B000008001E0FFF764FA012010BD127800F1DB
:1047C00024010A7000224A700122EDE711684FF0BF
:1047D000FF32E9E710B5436913B1AFF3008001E0A0
:1047E000FFF73EFB012010BD128800F124018284F6
:1047F0000022C2840122EDE711684FF0FF32E9E7A1
:1048000070B516460C46054600F040F8036893F86C
:104810000101012806D0FF2C0FD8185D68B10120D6
:104820002C7070BDD3F807013246214603F20713FE
:1048300003442846BDE8704018474FF0FF3070BD74
:10484000754600F0E7F8AE4605006946534620F08D
:104850000700854618B020B5FBF794FFBDE820405F
:104860004FF000064FF000074FF000084FF0000B2C
:1048700021F00701AC46ACE8C009ACE8C009ACE8DF
:10488000C009ACE8C0098D467047000010B500F0C3
:1048900005F8001D10BD00BFDD090000004870478D
:1048A000480500202DE9F0411F4604460326016813
:1048B000072A01F4006004DB08B116A505E016A57F
:1048C00003E008B115A500E015A521F01000206057
:1048D000A069C01EA0610FB1401EA0612046FFF775
:1048E00096F94FB1D4E9012138469047206A401C1F
:1048F0002062C01C206206E0206AFAE7D4E90121A8
:1049000015F8010B9047761EF8D22046FFF795F96F
:10491000BDE8F0814E414E006E616E00494E46008A
:10492000696E66002DE9F047814616468AB0334825
:1049300078440DC88DE80D0030487844801C03ACE5
:104940000DC884E80D0041F69B300844372190FBE8
:10495000F1F290FBF1F5A5F1800501FB12041B3C7F
:1049600002D56442012000E00020DFF890A08046DC
:104970000027FA44AAF1BE0A0DE0E00709D032464A
:10498000684607EB47010AEB810100F00CFB8DE85C
:10499000070064107F1C002CEFD1184F7F44AC3F00
:1049A00018E0E80714D007EB04100DF1180A90E89E
:1049B0000E008AE80E00C068F04201D198190890F4
:1049C000324606A903A800F0EEFA03AB83E807001D
:1049D0006D10641C002DE4D132466946B8F1000F19
:1049E00003A802D000F0CBFA01E000F0DCFAC9E93C
:1049F0000001C9F808200AB0BDE8F087D412000011
:104A000010B50446AFF300802046BDE81040FBF728
:104A10002CBC000000487047280500204FF0013CE6
:104A200050F8042B51F8043B9A4221D1A2EB0C031D
:104A3000934313EACC1317D150F8042B51F8043BDD
:104A40009A4215D1A2EB0C03934313EACC130BD17A
:104A500050F8042B51F8043B9A4209D1A2EB0C0305
:104A6000934313EACC13DBD04FF00000704700BF34
:104A7000D01A01BAB1FA81F101F0180122FA01F05D
:104A8000CB40C1F12001DBB2C0B2C01A2CFA01F355
:104A9000D11A914311EAC311E6D170475FEA400C85
:104AA00008BF91F0000F4FEA8C234FEAC12243EA7E
:104AB00051514FEA1C5018BF00F5F0404FEA30004A
:104AC00018BF41F000415FEA6C5C00F02980BCF146
:104AD000FF3F08BF40F080407047130C06BF120430
:104AE0004FF0100C4FF0000C130E04BF12020CF12B
:104AF000080C130F04BF12010CF1040C930F04BF38
:104B000092000CF1020CD30F04BF52000CF1010C07
:104B100011464FF00002A0F11F00A0EB0C007047FF
:104B200011F0004F08BF704731F000413FF4D5AF9E
:104B30000B0C06BF09044FF0100C4FF0000C0B0ECD
:104B400004BF09020CF1080C0B0F04BF09010CF1A2
:104B5000040C8B0F04BF89000CF1020CCB0F04BFB7
:104B600049000CF1010CCCF12003A0EB0C0022FA5F
:104B700003F302FA0CF241EA030100F1010070476D
:104B800020F07F4C80EA030023F07F47ACEB070363
:104B900003F57C5300F0004003F1FF032DE9804949
:104BA0004FEA154B09B44FEA144325EA0B4E24EAA9
:104BB00003480FF2042606EB132749083E785FEA04
:104BC000320203FB0667C7F5000707FB06F64FEA4C
:104BD00054374FEAD64606F1020607FB066CCCF1C5
:104BE000005C4FEA1C472CEA074C07FB06F40CFB61
:104BF00006F504EB15464FEA961634BF00204FF039
:104C000000404FEAD13706FB07FC4FEA1C4C0CFB77
:104C10000BF7D21B03FB0CF761EB07010CFB0EF744
:104C2000B0EB074072EB17420CFB08F734BFA2EB66
:104C30000742B2EB074261EB17414FEA0C444FEADF
:104C4000910706FB07FC4FEA1C4C0CFB0BF7B0EB83
:104C5000C74072EB573203FB0CF734BFA2EBC742DD
:104C6000B2EBC74261EB57310CFB0EF7B0EBC7005C
:104C700072EB57720CFB08F734BFA2EBC702B2EB22
:104C8000C70261EB5771039F4FEA816141EA9211BC
:104C900004EBCC044FEAD1374FEA826206FB07FCF3
:104CA00042EA90124FEA80604FEA1C4C0CFB0BF773
:104CB000D21B03FB0CF761EB07010CFB0EF7B0EB0B
:104CC000074072EB17420CFB08F734BFA2EB074218
:104CD000B2EB074261EB17414FEA8C554FEA91075F
:104CE00004EB9C2406FB07FC4FEA1C4C0CFB0BF767
:104CF000B0EBC74072EB573203FB0CF734BFA2EBAB
:104D0000C742B2EBC74261EB57310CFB0EF7B0EB79
:104D1000C70072EB57720CFB08F734BFA2EBC70257
:104D2000B2EBC70261EB577115EB4C254FEA81617D
:104D300041EA92114FEA82624FEAD13742EA901279
:104D400006FB07FC44F100044FEA80604FEA1C4C6C
:104D50000CFB0BF7D21B03FB0CF761EB07010CFB01
:104D60000EF7B0EB074072EB17420CFB08F734BFAD
:104D7000A2EB0742B2EB074261EB174115EB1C15A2
:104D80004FEA813141EA92414FEA823242EA90424F
:104D90004FEA80304FEA0C7644F1000448EA0343BE
:104DA0004EEA0B484FF0000EB2EB080C71EB030714
:104DB00024BF624639464EEB0E0E4FF0000B001832
:104DC000524149414BEB0B0BB2EB080C71EB030763
:104DD0007BF1000B24BF624639464EEB0E0E4FF0BE
:104DE000000B0018524149414BEB0B0BB2EB080C86
:104DF00071EB03077BF1000B24BF624639464EEB93
:104E00000E0E51EA020718BF46F0010616EB0E76A9
:104E100055F1000254F1000103D5BDE88901BDE858
:104E20000088BDE88901BDE80048B619524141EB50
:104E30000101A3F10103704780807F7E7D7C7B7A36
:104E40007978777676757473727171706F6E6E6D36
:104E50006C6C6B6A6A6968686766666564646363DC
:104E600062616160605F5F5E5E5D5D5C5C5B5B5A62
:104E70005A595958585757565655555554545353CF
:104E800052525251515050504F4F4F4E4E4D4D4D2A
:104E90004C4C4C4B4B4B4A4A4A4949494848484775
:104EA00047474746464645454544444444434343B3
:104EB0004342424242414141002B26D4770021D057
:104EC0001CB54FEA370703B44FF010004FF0100144
:104ED0004FF000000FBCBDE810400BF1010BBBF11F
:104EE000010F08BF5FEA170722BF12F1010211F19B
:104EF00001014FF0004143F1000300F0004043EA9C
:104F000000007047F9D35708DAE746EA064613F17E
:104F1000400F4FEA16461FDD13F1200FDFBF164387
:104F20000A46002120335B42C8D0C3F1200746EA7D
:104F3000064602FA07F74FEA164646EA0706C3F1A5
:104F4000200722FA03F201FA07F721FA03F14FF0E2
:104F5000000342EA0702B1E746EA020646EA0646CD
:104F60004FEA164646EA0106BCBF46EA0646360C3C
:104F70004FF000034FF000024FF000019EE72DE9D3
:104F8000C048934630B491E8380007C831EA400C75
:104F900048BF34EA430C03D5FFF7F2FDFFF78CFF5F
:104FA000F0BCBDE800882DE9C048934630B491E8D4
:104FB000380007C810F0804F08BF13F0804F03D1AE
:104FC00000F005F8FFF778FFF0BCBDE8008820F09E
:104FD0007F4780EA030023F07F4C07EB0C03A3F527
:104FE0007C5300F00040A3F1FE0392F0000F00F0AC
:104FF000B38095F0000F00F077802DE901494FEA6A
:1050000011404FEA144621EA004800FB06FC24EA5E
:10501000064708FB06F607FB08F800FB07F718EB46
:1050200006484CEB164C4FEA124B18EB07484FEA78
:1050300015464CEB174022EA0B4E0BFB06FC25EA0B
:1050400006470EFB06F607FB0EFE0BFB07F71EEBF3
:10505000064E4CEB164C4FF000061EEB074E4CEB89
:10506000174B18EB0B0840F1000018EB0E0B58EB38
:10507000000840F100008F1A4FF000013CBFC94307
:10508000661B14BFB5EB040C00213CBFC943F61BE3
:105090004FEA17444EEA8E0E27EA04454FEA1C47B2
:1050A00004FB07622CEA074C05FB07F70CFB05F62F
:1050B00004FB0CFC16EB074642EB174216EB0C46C2
:1050C00042EB1C421BEB060658EB0202414146EA4A
:1050D0009E0601D5BDE80189B619524141EB010197
:1050E000A3F10103BDE801894FEA14454FEA1147D6
:1050F00024EA054621EA074C05FB07F406FB07F7FF
:105100000CFB06F105FB0CFC11EB074144EB1744CB
:105110004FEA124711EB0C4144EB1C4422EA074CC6
:1051200005FB07F206FB07F70CFB06F605FB0CFC7C
:1051300016EB074642EB174216EB0C4642EB1C45BA
:105140006A1854F1000148BF7047B619524141EB4B
:105150000101A3F10103704795F0000F37D04FEA2A
:1051600011424FEA144721EA024624EA074C02FBA7
:1051700007F106FB07F70CFB06F402FB0CFC14EB33
:10518000074441EB17414FEA154714EB0C4441EB40
:105190001C4125EA074C02FB07F506FB07F70CFB51
:1051A00006F602FB0CFC16EB074645EB174516EB23
:1051B0000C4645EB1C42121951F1000148BF7047E3
:1051C000B619524141EB0101A3F1010370474FEAC7
:1051D00014454FEA114724EA054621EA074C05FB2E
:1051E00007F106FB07F70CFB06F24FF0000605FB84
:1051F0000CFC12EB074241EB174112EB0C4251EB56
:105200001C4148BF7047921841EB0101A3F1010313
:105210007047490050EAC12018BF04204A0D18BF4A
:1052200040F0010040F2FF72B2EB515F08BF40F066
:105230000200012808BF0520704730380A2801D233
:10524000012070470020704710B500290AD0087867
:10525000002807D005487844FFF7E0FB002801D07C
:10526000002010BD0248784410BD0000EA0900008B
:10527000E209000010B500290AD00878002807D0FC
:1052800005487844FFF7CAFB002801D0002010BD74
:105290000248784410BD0000DA090000D20900007D
:1052A0004FEA41034FEA5353A3F58063D3F11E0342
:1052B000C8BFD3F1210C0CDD4FF0004242EAC122FD
:1052C00042EA505232FA03FC8CEAE17CACEBE1702A
:1052D0007047102BC4BF0020704703F5787CBCF1E9
:1052E000FF3F04D06FF0004282EA2100704770B5A2
:1052F00000F0C6F84992248000207047F2E710F0D1
:10530000004248BF4042B0FA80F310FA03F10AD0DD
:10531000C3F11D0303F580634FEA415002EB0352D2
:1053200002EBD12170474FF000007047DFF848C111
:1053300070B51CEA111E1EBF1CEA13159EEA0C0F65
:1053400095EA0C0F00F06F8081EA030423EA4C1306
:105350004EEAD47E21EA4C1141F4801143F48013CB
:10536000AE44A1FB024CA0FB0365AEF17F7E361973
:1053700055EB0C05A1FB034C4CF10003A0FB021CF8
:1053800016EB0C06654153F10003094218BF46F0C5
:10539000010613F4007F0BD14FEA03314FEA0530C9
:1053A000340341EA155140EA16506FF003020AE057
:1053B0004FEAC3214FEAC520F40241EA555140EAC1
:1053C00056506FF0020202EB2E4201EB025585EAC5
:1053D000CE710AD05FEA440C18BF24F0004450F1AB
:1053E000000041F1000120EAD47040F2FE7C6245E9
:1053F00000D270BDA84214BF4FF080444FF040442B
:10540000002E08BF0024BEF1806FA8BFA1F1C041EB
:10541000BDE8704080F282804FF0000001F1C04191
:1054200001F0004170479EEA0C0F0CEA131518BFFB
:1054300095EA0C0F06D04FF0000081EA030E0EF043
:10544000004170BD00F01CF88900013E00F007B873
:1054500000F009B84FEA430C5FEA5C5C08D081EACF
:10546000030100F05BB84FEA410C5FEA5C5CF6D1E7
:105470004FF00000014970470000FF070000F87F6F
:105480000EF1020E2EF0030E5EF8046B364205D4C8
:10549000012A43EB030515F5001F12D8012841EB43
:1054A000010C1CF5001F0CD80ED14FEAD17C15F56C
:1054B000001F0CEB4C0C0CF1020C08BF4CEBD37C26
:1054C00004E04FF0080C01E04FEAD37C0CEB4C05F4
:1054D00026FA05F606F00706B6F1040C06D20EEB26
:1054E000860CBDE870404CF0010C6047DFE80CF022
:1054F000090B02024FF000414FF00000A1F500211E
:1055000070BD19461046012851EB010418BFD4F5AF
:10551000001484BF002001F0004170BD0808A0F510
:1055200000114FEA31017047FEF78ABEFEF7BEBF99
:10553000000000000000000000000000000000006B
:10554000000000F800000000000000333000000000
:1055500000100C06100C0600000000000000000007
:1055600040C07840C0784000043F04043F04040079
:10557000007088FC08300000001820FF211E000089
:10558000F008F000E018000000211C031E211E009E
:1055900000F00888700000001E2123241927211024
:1055A00010160E00000000000000000000000000C7
:1055B000000000E01804020000000007182040006E
:1055C00000020418E000000000402018070000005E
:1055D000404080F0804040000202010F01020200C2
:1055E000000000F0000000000101011F01010100A6
:1055F000000000000000000080B07000000000000B
:105600000000000000000000000101010101010193
:10561000000000000000000000303000000000002A
:1056200000000000806018040060180601000000FF
:1056300000E010080810E000000F102020100F00FC
:10564000001010F8000000000020203F2020000083
:1056500000700808088870000030282422213000DB
:1056600000300888884830000018202020110E00E3
:105670000000C02010F8000000070424243F24008C
:1056800000F80888880808000019212020110E0061
:1056900000E0108888180000000F112020110E0073
:1056A00000380808C83808000000003F000000006B
:1056B0000070880808887000001C222121221C002C
:1056C00000E010080810E0000000312222110F0055
:1056D000000000C0C00000000000003030000000EA
:1056E000000000800000000000008060000000005A
:1056F0000000804020100800000102040810200073
:1057000040404040404040000404040404040400BD
:105710000008102040800000002010080402010052
:10572000007048080808F000000000303601000052
:10573000C030C828E810E0000718272423140B0005
:105740000000C038E0000000203C2302022738207F
:1057500008F8888888700000203F202020110E0063
:10576000C03008080808380007182020201008005A
:1057700008F808080810E000203F202020100F0043
:1057800008F88888E8081000203F2020232018000F
:1057900008F88888E8081000203F20000300000077
:1057A000C03008080838000007182020221E020018
:1057B00008F808000008F808203F210101213F20D7
:1057C000000808F8080800000020203F2020000002
:1057D00000000808F8080800C08080807F000000F2
:1057E00008F888C028180800203F2001263820002B
:1057F00008F8080000000000203F20202020300092
:1058000008F8F800F8F80800203F003F003F2000AB
:1058100008F830C00008F808203F200007183F00B3
:10582000E01008080810E0000F10202020100F00E2
:1058300008F808080808F000203F210101010000D5
:10584000E01008080810E0000F18242438504F001A
:1058500008F8888888887000203F2000030C3020DA
:1058600000708808080838000038202121221C0018
:10587000180808F8080818000000203F2000000061
:1058800008F808000008F808001F202020201F004A
:105890000878880000C83808000007380E010000AA
:1058A000F80800F80008F800033C0700073C030074
:1058B000081868808068180820302C03032C3020DA
:1058C0000838C800C83808000000203F2000000049
:1058D00010080808C83808002038262120201800A1
:1058E000000000FE020202000000007F4040400075
:1058F000000C30C000000000000000010638C000AD
:1059000000020202FE000000004040407F00000054
:105910000000040202020400000000000000000079
:105920000000000000000000808080808080808077
:10593000000202040000000000000000000000005F
:1059400000008080808000000019242222223F2055
:1059500008F8008080000000003F112020110E0098
:105960000000008080800000000E11202020110027
:10597000000000808088F800000E112020103F20D9
:105980000000808080800000001F2222222213005D
:10599000008080F0888888180020203F20200000A8
:1059A0000000808080808000006B9494949360005D
:1059B00008F8008080800000203F210000203F2068
:1059C00000809898000000000020203F2020000068
:1059D000000000809898000000C08080807F000058
:1059E00008F8000080808000203F24022D30200035
:1059F000000808F8000000000020203F20200000E0
:105A00008080808080808000203F20003F20003FF9
:105A10008080008080800000203F210000203F2007
:105A20000000808080800000001F202020201F00B8
:105A3000808000808000000080FFA12020110E00E7
:105A40000000008080808000000E112020A0FF80D8
:105A5000808080008080800020203F212000010085
:105A600000008080808080000033242424241900DA
:105A7000008080E0808000000000001F20200000E7
:105A80008080000000808000001F202020103F2028
:105A9000808080000080808000010E3008060100B8
:105AA00080800080008080800F300C030C300F005D
:105AB00000808000808080000020312E0E31200088
:105AC000808080000080808080818E7018060100B8
:105AD00000808080808080000021302C22213000D6
